:100000000C94A4080C9423150C94FC140C94CC08A8
:100010000C94CC080C94CC080C94CC080C94CC0810
:100020000C94CC080C94CC080C94CC080C94CC0800
:100030000C94CC080C94CC080C94CC080C94CC08F0
:100040000C94B2140C94CC080C94DF130C94B913D8
:100050000C94CC080C94CC080C94CC080C94CC08D0
:100060000C944A150C94CC083E3E204C6F67676593
:10007000723A20496E76616C6964206465766963C2
:100080006520636F6E66696775726174696F6E2E45
:1000900020526573657420636F6E6669677572615F
:1000A00074696F6E207769746820636F6D6D616E1F
:1000B00064202767270A003E3E20557365723A2068
:1000C0002020000A3E3E204C6F676765723A204947
:1000D0006E7075742053657175656E7469616C20FE
:1000E00046696C65204E756D626572202834204427
:1000F0004947495453292E2043757272656E742006
:100100004E756D62657220697320000A3E3E20556F
:100110007365723A202020002E000A3E3E204C6F6C
:10012000676765723A20496E707574204D65746515
:10013000722050756C736520746F2047616C6C6F12
:100140006E20466163746F722028782E7878782943
:100150002E2043757272656E7420466163746F72EF
:1001600020697320000A3E3E20557365723A2020B4
:1001700020000A3E3E204C6F676765723A20496E48
:1001800070757420446174616C6F67676572204993
:1001900044204E756D6265722028332044494749DA
:1001A0005453292E2043757272656E742049442081
:1001B000697320000A3E3E20557365723A20202064
:1001C000003E3E204C6F676765723A20496E70753D
:1001D000742053697465204E756D626572202833F2
:1001E00020444947495453292E2043757272656E45
:1001F000742053697465204E756D62657220697351
:1002000020000A3E3E204C6F676765723A20436FBC
:100210006E6669677572696E670A002E20436F6E9D
:1002200074696E75653F28792F6E293A20000A3E61
:100230003E204C6F676765723A205741524E494ED7
:10024000473A2054686973206F7065726174696FF2
:100250006E2077696C6C207065726D616E656E746E
:100260006C792064656C65746520003E3E204C6F9F
:10027000676765723A2046696C6520746F20726505
:100280006D6F76653A20003E3E204C6F6767657261
:100290003A2043616E6E6F7420636C65616E20530B
:1002A000442043617264207768696C65206C6F67D5
:1002B00067696E672E003E3E204C6F676765723A35
:1002C0002053442043617264206E6F7420696E690C
:1002D0007469616C697A65642E003E3E204C6F67DC
:1002E0006765723A205344206572726F72206465AC
:1002F0007465637465642E003E3E204C6F676765CD
:10030000723A204E6F205344206572726F727320D0
:1003100064657465637465642E000A3E3E204C6F0C
:10032000676765723A204578697474696E672E0A4A
:100330000A003E3E204C6F676765723A20534420A6
:100340004361726420627573792E20557365206352
:100350006F6D6D616E642027532720746F20737456
:100360006F7020646174616C6F6767696E6720618C
:100370006E642074727920616761696E2E003E3E62
:10038000204C6F676765723A205344204361726462
:10039000206D6179206E6F772062652072656D6FC8
:1003A0007665642E003E3E204C6F676765723A208A
:1003B0005344204361726420616C726561647920EA
:1003C000656A65637465642E00202020202020204B
:1003D000202020207720202D2D205072696E74203F
:1003E000776174657220666C6F7720646174612038
:1003F00066726F6D206C61737420636F6D706C65D5
:1004000074652073616D706C650A002020202020C7
:100410002020202020207520202D2D205570646163
:10042000746520646174652F74696D650A0020200D
:100430002020202020202020205320202D2D20533C
:10044000746F7020646174616C6F6767696E670AAE
:100450000020202020202020202020207320202D5C
:100460002D20537461727420646174616C6F6767CE
:10047000696E67202877696C6C20617070656E64A6
:1004800020746F20616E79206578697374696E6776
:1004900020646174616C6F672E637376290A002093
:1004A000202020202020202020207420202D2D20DE
:1004B000536574207468652074696D6520696E7475
:1004C000657276616C206174207768696368206466
:1004D0006174612069732073746F726564206F6E3C
:1004E0002074686520534420636172642E0A0020E2
:1004F000202020202020202020205220202D2D20B0
:10050000446961676E6F7365207468652052544357
:100510000A002020202020202020202020712020C0
:100520002D2D20436C656172205344206572726FDB
:1005300072206D61726B0A00202020202020202074
:100540002020207020202D2D205072696E74206391
:100550006F6E66696775726174696F6E206461742D
:10056000610A0020202020202020202020206C2034
:10057000202D2D204C6973742066696C6573206F83
:100580006E2074686520534420636172640A002001
:10059000202020202020202020206920202D2D20F8
:1005A000496E697469616C697A6520746865205365
:1005B0004420636172640A00202020202020202033
:1005C0002020206820202D2D20446973706C6179D3
:1005D0002068656C700A0020202020202020202028
:1005E00020206720202D2D205365742064657669B6
:1005F000636520636F6E66696775726174696F6E9B
:100600000A002020202020202020202020452020FB
:100610002D2D20456A656374205344206361726404
:100620000A002020202020202020202020652020BB
:100630002D2D20457869742073657269616C20697D
:100640006E746572666163650A0020202020202098
:1006500020202020206420202D2D20566965772021
:10066000646174652F74696D650A00202020202064
:100670002020202020204320202D2D20436865634A
:100680006B20666F72205344206361726420657230
:10069000726F72730A00202020202020202020204A
:1006A000206320202D2D20436C65616E2053442053
:1006B000636172640A003E3E204C6F676765723A60
:1006C000204C697374206F6620636F6D6D616E647A
:1006D000733A0A003E3E204C6F676765723A2045C8
:1006E00072726F722E204973207468652053442003
:1006F0004361726420696E7365727465643F003E85
:100700003E204C6F676765723A2053442052656102
:1007100064792E00476F6F6462796521000A3E3E5E
:100720002052544320446F63746F723A20000A3E93
:100730003E2052544320446F63746F723A20492024
:10074000646F6E277420756E6465727374616E6475
:1007500020796F757220696E7075742E20547279CD
:1007600020736F6D657468696E672066726F6D20A7
:10077000746865206C6973742E000A3E3E205254E2
:100780004320446F63746F723A2046696E697368E0
:1007900065642120436865636B2074686520726519
:1007A0006769737465727320746F206D616B652067
:1007B00073757265207468657927726520636F723E
:1007C000726563743A0A000A3E3E20525443204444
:1007D0006F63746F723A20576861742076616C752C
:1007E0006520776F756C6420796F75206C696B6517
:1007F00020746F2077726974653F20287370656379
:1008000069667920696E2068657861646563696DE1
:10081000616C293A203078000A3E3E205254432031
:10082000446F63746F723A20576869636820726519
:1008300067697374657220776F756C6420796F7562
:10084000206C696B6520746F20616C7465723F2049
:10085000287272293A20000A3E3E20525443204416
:100860006F63746F723A2049276C6C2077726974D9
:100870006520776861746576657220796F7520747C
:10088000656C6C206D6520746F2C20736F20626521
:10089000207375726520746F20646F75626C6520BB
:1008A000636865636B2E000A3E3E20525443204429
:1008B0006F63746F723A20486572652061726520BB
:1008C00074686520636F6E74656E7473206F662044
:1008D0007468652052544320526567697374657269
:1008E000732E20596F752077696C6C2070726F625F
:1008F00061626C792077616E74206120636F70791A
:10090000206F6620746865205043463835323320A6
:1009100044617461736865657420746F20696E74D6
:100920006572707265742074686573652E0A003E86
:100930003E2052544320446F63746F723A205469CE
:100940006D657220726573657421000A3E3E205207
:10095000544320446F63746F723A20526573657418
:1009600074696E6720746865205254432773204968
:100970006E746572727570742054696D65722E2E76
:100980002E0A003E3E2052544320446F63746F721F
:100990003A20496E74657272757074207265736561
:1009A0007421000A3E3E2052544320446F63746F0A
:1009B000723A20526573657474696E672074686555
:1009C00020525443277320496E7465727275707497
:1009D0002E2E2E0A003E3E20557365723A202020AE
:1009E000002020202035202D2D2046696E69736857
:1009F0000A002020202034202D2D20416C746572A7
:100A000020612072656769737465720A0020202076
:100A10002033202D2D20446973706C617920746817
:100A20006520525443205265676973746572206370
:100A30006F6E74656E74730A002020202032202DA2
:100A40002D20526573657420496E746572727570DD
:100A5000742054696D65720A002020202031202DF9
:100A60002D2052652D456E61626C6520746865208D
:100A700052544320496E746572727570740A00573F
:100A80006861742077696C6C2069742062653F0A24
:100A9000003E3E2052544320446F63746F723A20EC
:100AA00049276D20747261696E656420746F2072CD
:100AB000756E206120636F75706C652070726F6356
:100AC000656475726573206F6E20796F7572205240
:100AD00054432E20003E3E2052544320446F637402
:100AE0006F723A204869212049276D206865726538
:100AF00020746F2068656C702066697820796F7546
:100B000072205254432E0A003E3E204C6F676765A8
:100B1000723A20496E70757420332D646967697468
:100B200020706572696F643A20000A3E3E204C6F67
:100B3000676765723A204C6F6767696E67207374E8
:100B400061727465642E003E3E204C6F676765726B
:100B50003A20003E3E204C6F676765723A20436141
:100B60006E6E6F74206C6F6720776974686F757430
:100B700020534420436172642E003E3E204C6F6738
:100B80006765723A20416C7265616479204C6F67C9
:100B900067696E672E003E3E204C6F676765723A4C
:100BA000204C6F6767696E672073746F707065643F
:100BB0002E003E3E204C6F676765723A204E6F7480
:100BC000206C6F6767696E672E000A3E3E204C6F8F
:100BD000676765723A204461746520616E642054D1
:100BE000696D652072657365742E000A3E3E204C67
:100BF0006F676765723A20456E746572206E65771F
:100C0000206D696E75746520286D6D293A20000A83
:100C10003E3E204C6F676765723A20456E74657280
:100C2000206E657720686F7572202868682C2032E6
:100C3000342D686F757220636C6F636B293A2000E6
:100C40000A3E3E204C6F676765723A20456E7465B8
:100C500072206E6577207965617220287979293A4A
:100C600020000A3E3E204C6F676765723A20456E51
:100C7000746572206E657720646179202864642928
:100C80003A20003E3E204C6F676765723A20456E01
:100C9000746572206E6577206D6F6E746820286DA4
:100CA0006D293A20003E3E204C6F676765723A20FE
:100CB0005570646174696E67206461746520616E4B
:100CC000642074696D652E2E2E0A002047616C0A1F
:100CD000003E3E204C6F676765723A20546F746126
:100CE0006C20466C6F772073696E6365206C6F674C
:100CF00067696E672073746172743A202020003E29
:100D00003E204C6F676765723A20546F74616C20A7
:100D100050756C7365732073696E6365206C6F67C3
:100D200067696E672073746172743A2000204761AE
:100D30006C2F6D696E0A0A003E3E204C6F67676536
:100D4000723A204176657261676520466C6F773A2A
:100D500020002047616C0A003E3E204C6F676765AB
:100D6000723A20546F74616C20466C6F773A202081
:100D700020003E3E204C6F676765723A20546F74C6
:100D8000616C2050756C7365733A20003E3E204CB8
:100D90006F676765723A20446174612066726F6D97
:100DA000206C6173742073616D706C653A003E3E17
:100DB000204C6F676765723A20556E6B6E6F776E69
:100DC00020636F6D6D616E642E20557365207468AD
:100DD0006520636F6D6D616E642022682220666FEE
:100DE000722061206C697374206F6620636F6D6D73
:100DF000616E64732E0A3E3E20557365723A202060
:100E000020000A3E3E20557365723A202020000AD9
:100E10003E3E20557365723A202020000A3E3E2057
:100E2000557365723A202020000A3E3E20557365B6
:100E3000723A202020000A3E3E20557365723A2007
:100E40002020000A3E3E20557365723A2020200083
:100E50003E3E204C6F676765723A2043616C6C6957
:100E60006E67207468652052544320446F63746F2A
:100E7000722E2E2E0A000A3E3E20557365723A20CD
:100E80002020000A3E3E20557365723A2020200043
:100E90000A3E3E20557365723A202020000A3E3EED
:100EA00020557365723A202020000A3E3E2055737B
:100EB00065723A202020000A3E3E20557365723A42
:100EC000202020000A3E3E20557365723A202020E3
:100ED000000A3E3E20557365723A202020000A3EEB
:100EE0003E20557365723A202020000A3E3E205570
:100EF0007365723A202020000A3E3E2057686F61D9
:100F00002064756465732C206261642066696C6579
:100F100020706F696E746572210A3E3E20557365BC
:100F2000723A202020003E3E204C6F676765723A7F
:100F300020496E76616C696420646576696365201A
:100F4000636F6E66696775726174696F6E2E205289
:100F50006573657420636F6E666967757261746925
:100F60006F6E207769746820636F6D6D616E6420A9
:100F70002767270A003A2000526567697374657213
:100F800020002042797465730A00204D420A002037
:100F90006B420A000A3E3E204C6F676765723A203A
:100FA000456E64206F662066696C6573003E3E2066
:100FB0004C6F676765723A2046696C6573206F6E87
:100FC000207468697320534420436172640A0A4E96
:100FD000616D65202020200953697A650A2D2D2D29
:100FE0002D2D2D2D2D092D2D2D2D2D0A003E3E2090
:100FF0004C6F676765723A204C6F67676572207245
:10100000656164792E0A3E3E20557365723A202050
:10101000200000000000250028002B007C3C3E5EE4
:101020002B3D3F2F5B5D3B2C2A225C003E3E204C3B
:101030006F676765723A204D65746572204661631B
:10104000746F723A202020202020003E3E204C6FFA
:10105000676765723A2053657175656E7469616C76
:101060002046696C6520233A20003E3E204C6F6785
:101070006765723A20446174616C6F6767657220BE
:10108000494420233A202020003E3E204C6F6767D1
:1010900065723A205369746520233A20202020206D
:1010A000202020202020200054696D652C5265638B
:1010B0006F72642C50756C7365730A004D657465AE
:1010C00072205265736F6C7574696F6E3A200044BC
:1010D0006174616C6F6767657220494420233A2010
:1010E000005369746520233A2000000000002300AB
:1010F0002600290004040404040404040202020279
:1011000002020303030303030102040810204080CA
:101110000102040810200102040810200000000849
:1011200000020100000304070000000000000000AE
:101130003E3E204C6F676765723A20000000000059
:10114000240027002A00CE3211241FBECFEFD8E0A2
:10115000DEBFCDBF11E0A0E0B1E0EEE1F1E702C0FB
:1011600005900D92A43BB107D9F725E0A4EBB1E0BF
:1011700001C01D92AC3BB207E1F718E0C4EAD8E029
:1011800004C02197FE010E948137C33AD107C9F7F5
:101190000E9439280C948D380C940000DC0159967B
:1011A000ED91FC915A973097B9F083899489A5897C
:1011B000B6894285538564857585841B950BA60B7E
:1011C000B70B811520E89207A105B10538F08FEF24
:1011D0009FE7A0E0B0E0089580E090E00895DC0192
:1011E00059968D919C915A97009739F0DC01ED91B9
:1011F000FC910480F581E02D099480E090E0089551
:10120000CF93DF931F92CDB7DEB76983DC01ED91F9
:10121000FC910280F381E02D41E050E0BE016F5F60
:101220007F4F09950F90DF91CF910895089580E049
:1012300090E0089581E080932004089581E08093F8
:1012400023040895CF93DF93CDB7DEB76D970FB624
:10125000F894DEBF0FBECDBF4423B1F1AB01BC019A
:101260001C821B8281E891E09A8389831E8222E09E
:10127000CE0101960E94B01E811102C090E01FC0F5
:10128000CE0101960E94B5218823C1F36F8578892C
:1012900089899A8941E00E947C1A882379F3EB8935
:1012A00080E2E89FF0011124EF5EFD4F309731F3AB
:1012B00085EE80831E8281E00E94531A982F81E080
:1012C000911103C080E001C081E06D960FB6F894E3
:1012D000DEBF0FBECDBFDF91CF9108951F93CF9397
:1012E000DF93CDB7DEB76D970FB6F894DEBF0FBEB4
:1012F000CDBFAB011C821B8221E831E03A832983F8
:101300001E8221E0BC01CE0101960E94B01E11E0B8
:10131000811102C010E004C0CE0101960E9471202C
:10132000812F6D960FB6F894DEBF0FBECDBFDF9153
:10133000CF911F910895FC01818D928D009719F036
:1013400061E00C94C61A0895CF93DF93EC01898D68
:101350009A8D009739F481E090E09B838A8380E046
:1013600090E00BC0FC01138212820E94A51BE98D44
:10137000FA8D22813381232B71F7DF91CF9108956C
:1013800061E0FC0184810E943A148091BA018111CC
:101390001092BA0108958EBD00000DB407FEFDCF76
:1013A0008EB508958FEF0C94CB090F931F93CF93B5
:1013B000DF93EB010E94A6148B010E94D2098F3F9C
:1013C00049F00E94A614601B710B6C177D07A8F3EF
:1013D00080E001C081E0DF91CF911F910F910895CE
:1013E000CF93DF93EC018E81882389F08F819885DC
:1013F0009C012F5F3F4F38872F838230924018F433
:101400000E94D209F3CFCE010E94C0091E82DF9153
:10141000CF9108958CBD9DBD0895CF93DF93EC01CE
:101420008091BA01811109C081E08093BA01809155
:101430005105909152050E940A0A60E08C81DF916B
:10144000CF910C943A14CF92DF92FF920F931F9397
:10145000CF93DF9300D000D0CDB7DEB76C01F62E6E
:1014600029833A834B835C830E94F009C6010E9462
:101470000D0A6CE271E0C6010E94D5098F2D8064CF
:101480000E94CB0908E110E05C814B813A812981FF
:10149000DA01C901002E04C0B695A79597958795E6
:1014A0000A94D2F729833A834B835C830E94CB0949
:1014B0000850110929813A814B815C81083F8FEFE7
:1014C000180731F7FF2029F0E8E0FE1204C087E892
:1014D00003C085E901C08FEF0E94CB0910E00E9494
:1014E000D209F601828787FF04C01F3F11F01F5FFA
:1014F000F6CF0F900F900F900F90DF91CF911F912B
:101500000F91FF90DF90CF900895CF92DF92EF92EE
:10151000FF920F93CF93DF93EC01690141155105C1
:101520006105710511F482E13EC08B85833039F08D
:1015300089E0440F551F661F771F8A95D1F79A01DE
:10154000AB0168E1CE010E94230A882311F084E0F8
:101550002AC08EEF0E94CB0976018EEFD81AF701D0
:1015600081917F010E94CB09EC14FD04C1F78FEF3C
:101570000E94CB098FEF0E94CB090E94D2098A8773
:101580008F71853031F081E18D83CE010E94C009D9
:101590000BC00023D9F068E572E0CE010E94D509A6
:1015A000811107C085E18D83CE010E94C00980E0D2
:1015B00014C020E030E0A9016DE0CE010E94230AB2
:1015C000811109C00E94D209811105C0CE010E947B
:1015D000C00981E002C084E1E6CFDF91CF910F9195
:1015E000FF90EF90DF90CF900895FC01DB01129601
:1015F0008D919C9113979383828381E891E09183ED
:10160000808314968C911497848315968C911597EA
:10161000858316964D915D916D917C9119974683C6
:101620005783608771871A964D915D916D917C917A
:101630001D9742875387648775871E964D915D91EC
:101640006D917C91519746875787608B718B52962D
:101650008C915297828B53964D915D916D917C91B7
:101660005697438B548B658B768B57964D915D9136
:101670006D917C915A97478B508F618F728F5B96DB
:101680008D919C915C97948F838F0895CF93DF9376
:10169000EC01898D9A8D009741F00E947120898D0F
:1016A0009A8D0E94BB331A8E198EDF91CF910895C7
:1016B000FC011382128288EE93E0A0E0B0E0848304
:1016C0009583A683B78389E391E091838083128E0B
:1016D000118E14860895EF92FF920F931F93CF936C
:1016E000DF93EC017B018A011B821A8288EE93E072
:1016F000A0E0B0E08C839D83AE83BF8389E391E05B
:10170000998388838DE190E00E9426339A8F898F98
:10171000009779F02DE1F701DC0101900D922A95F7
:10172000E1F74CE050E0B801CE010C960E947E3803
:10173000188EDF91CF911F910F91FF90EF90089538
:10174000CF93DF931F92CDB7DEB741E050E0BE01EB
:101750006F5F7F4F0E94AB1D019719F4898190E064
:1017600002C08FEF9FEF0F90DF91CF910895FC01A2
:10177000818D928D009711F00C94A00B8FEF9FEF4D
:1017800008950F931F93CF93DF93FC01818D928D6A
:101790000097B9F0EF010E94A00B8C010F3F8FEF73
:1017A000180791F0898D9A8DFC01428553856485D7
:1017B000758541505109610971090E940F1BC801CB
:1017C00005C080E090E002C08FEF9FEFDF91CF91E6
:1017D0001F910F910895E4E6F0E08081846080839A
:1017E0000895E4E6F0E080818B7F80830895E4E64D
:1017F000F0E080818D7F80838FE19EE40197F1F797
:1018000000C00000E8EAF4E0A089B18982E08C938E
:10181000A485B5851C92A685B78587E68C93108E26
:10182000A489B58986E08C93A289B3898C91806163
:101830008C93A289B3898C9188608C93A289B38997
:101840008C9180688C930288F389E02D80818F7D54
:1018500080838FE19EE40197F1F700C000006DEEF8
:101860007FE088EA94E00C945112E4E6F0E0808195
:10187000806880830895E4E6F0E080818F7780833C
:1018800082E08A95F1F700C01092B5011092B40180
:1018900010923E04109260040E94781682E08A95AD
:1018A000F1F700C00895EF92FF920F931F93CF932B
:1018B000DF93082FE92E142F81E080933D048EE101
:1018C00080935F0410923E041092600485E495E0DA
:1018D0000E9428110E94EC20612F113208F060E272
:1018E0008EE10E94A8201092B5018093B401F02EE1
:1018F000C02FDE2D8C2F8F19811730F485E495E0F1
:101900000E94DC108993F6CFDF91CF911F910F9148
:10191000FF90EF900895EF92FF920F931F93CF9354
:10192000DF932223B1F0213071F5042FF92E182F07
:1019300020933D048EE180935F0410923E04109248
:10194000600485E495E00E942811E12EC12FDF2D6F
:1019500008C0DF91CF911F910F91FF90EF900C94F1
:10196000530C8C2F8E19801730F4699185E495E023
:101970000E942811F6CFDF91CF911F910F91FF9018
:10198000EF900C94EC20DF91CF911F910F91FF907D
:10199000EF900895CF9388EA94E00E94CD0FC82F6E
:1019A0008A3029F0682F88EA94E00E944A128C2F2E
:1019B000CF91089588EA94E00E94EF0F1816190657
:1019C000CCF70E94CA0C8A30A9F30895F999FECF8A
:1019D00090E092BD81BD60BDFA9AF99A0895F99997
:1019E000FECF90E092BD81BDF89A80B508950F9327
:1019F0001F93CF93DF9387E00E94EF0C182F88E0AE
:101A00000E94EF0CD82F89E00E94EF0CC82F8AE0CB
:101A10000E94EF0C412F50E04053510928EE33E073
:101A2000429FB001439F700D529F700D11244D2FA6
:101A300050E04053510994E6949F9001959F300DDA
:101A40001124260F371F6C2F70E0605371099AE044
:101A5000969FA001979F500D1124240F351FA901B7
:101A6000480F511DCA018F97CAE0D0E0BE010E9405
:101A700037378B0160E3680F8AE00E94E60CC801EB
:101A8000BE010E9437378B0160E3680F89E00E9436
:101A9000E60CC801BE010E9437378B0160E3680F76
:101AA00088E00E94E60CC801BE010E94373760E35F
:101AB000680F87E0DF91CF911F910F910C94E60C96
:101AC000CF93DF930E943B0C81E080933D0488E636
:101AD00080935F0410923E041092600460E085E4FD
:101AE00095E00E9428110E94EC2064E188E60E94A3
:101AF000A8201092B5018093B401C0E09091B40188
:101B00008091B501981781F185E495E00E94DC1081
:101B1000D82F68E77FE088EA94E00E945112CA302B
:101B200028F460E388EA94E00E944A124C2F50E0C7
:101B300060E070E02AE088EA94E00E948A1265E79B
:101B40007FE088EA94E00E9451124D2F50E060E05F
:101B500070E02AE088EA94E00E948A1288EA94E021
:101B60000E94B513CF5FCACFDF91CF910C94350C93
:101B70000F931F93CF93DF931F92CDB7DEB7162F2E
:101B8000042F89830E943B0C91E090933D0498E6DA
:101B900090935F0410923E04109260048981682F34
:101BA00085E495E00E942811111105C0602F85E49D
:101BB00095E00E9428110E94EC20113069F461E048
:101BC00088E60E94A8201092B5018093B40185E4B4
:101BD00095E00E94DC10082F0E94350C802F0F909A
:101BE000DF91CF911F910F910895CF93DF93EB0178
:101BF0002A813B81FC01338322834C815D816E818C
:101C00007F814483558366837783488559856A85B8
:101C10007B8540875187628773872DE0FE013C9664
:101C2000DC011C9601900D922A95E1F7298D3A8DE1
:101C3000FC01328F218FDF91CF9108959F92AF9257
:101C4000BF92CF92DF92EF92FF920F931F93CF93A9
:101C5000DF93CDB7DEB7C85BD1090FB6F894DEBF0E
:101C60000FBECDBF0E94F10BCE018A589F4F0E943C
:101C7000580B41E060EA71E0CE0101960E94972284
:101C8000BE016F5F7F4FCE018A589F4F0E94F50DB6
:101C9000C157DF4FE881F981CF58D040309721F00C
:101CA0008581823008F036C16DEA7FE088EA94E0F1
:101CB0000E94511201E811E08EE2982E9BE5A92EB8
:101CC000B12CAC0EBD1E8CE0A80EB11CCE01855A05
:101CD0009F4F0E94580BC157DF4FE880F980CF58C3
:101CE000D040F7018581823008F473C0F701828506
:101CF0009385A485B5858F719927AA27BB27892B42
:101D00008A2B8B2B09F065C040E250E0BE016F5F6B
:101D10007F4FC7010E94AB1D803209F05AC08981F4
:101D2000882309F456C0853E79F38E3269F38C8599
:101D300083FDEACF22961FAE1EAE22971FAF0EAFD5
:101D400024961FAE2497FE01319680E090E0219109
:101D5000203291F0983041F4ACEAB0E0AC0FBD1FF6
:101D6000A80FB11D9C928F5FACEAB0E0AC0FBD1F15
:101D7000A80FB11D2C938F5F9F5F9B3041F7ECEA5A
:101D8000F0E0EC0FFD1FE80FF11D1082C157DF4F8F
:101D900068817981CF58D04021E0AE0144555F4F32
:101DA000CE01CE960E94B01E882399F0BE01625CDF
:101DB0007F4FCE0181960E94F50AAE0144555F4FD8
:101DC000BE016F5D7F4FCE018F569F4F0E946B0B00
:101DD00005C0CE018F569F4F0E94580BBE016F5613
:101DE0007F4FCE01855A9F4F0E94F50DE696EEADCE
:101DF000FFADE697309719F0858181111BC064E92A
:101E00007FE088EA94E00E9451120E94EB0BC854D4
:101E1000DF4F0FB6F894DEBF0FBECDBFDF91CF917D
:101E20001F910F91FF90EF90DF90CF90BF90AF90F8
:101E30009F900895B50188EA94E00E94751262EAC5
:101E400071E088EA94E00E947512E696EEADFFAD6F
:101E5000E697309729F0638974898589968903C04C
:101E600060E070E0CB010E94AF346B017C0120E0A8
:101E700030E040E854E40E942D371816E4F420E0E6
:101E800030E040E859E4C701B6010E94AA3487FF58
:101E900012C020E030E040E85AE3C701B6010E94DA
:101EA0001035AB01BC0121E088EA94E00E94D31216
:101EB0006FE87FE025C020E030E040E859E4C7014A
:101EC000B6010E942D3787FD12C020E030E040E8C7
:101ED00055E3C701B6010E941035AB01BC0121E0FA
:101EE00088EA94E00E94D3126AE87FE009C020E00B
:101EF000B701A60188EA94E00E94D31262E87FE06D
:101F000088EA94E00E945112CE01855A9F4F0E94A8
:101F1000460BDCCE16821782108611861286138637
:101F200014861586C1CECF92DF92EF92FF920F9367
:101F30001F93CF93DF936C017A018B01C0E0D0E057
:101F4000CE15DF0589F0D8016D918D01D601ED9197
:101F5000FC910190F081E02DC6010995892B11F4C7
:101F60007E0102C02196ECCFC701DF91CF911F9176
:101F70000F91FF90EF90DF90CF900895FC01538D6B
:101F8000448D252F30E0842F90E0821B930B541753
:101F900010F0CF96089501970895FC01918D828DE0
:101FA000981761F0828DDF01A80FB11D5D968C91AD
:101FB000928D9F5F9F73928F90E008958FEF9FEFB8
:101FC0000895FC01918D828D981731F0828DE80F74
:101FD000F11D858D90E008958FEF9FEF0895FC012E
:101FE000918D228D892F90E0805C9F4F821B9109FB
:101FF0008F739927089588EA94E00E94EF0F21E0FB
:10200000892B09F420E0822F0895FC01848DDF01E3
:10201000A80FB11DA35ABF4F2C91848D90E001965B
:102020008F739927848FA689B7892C93A089B1894A
:102030008C9180648C93938D848D981306C0028854
:10204000F389E02D80818F7D80830895EF92FF9248
:102050000F931F93CF93DF93EC0181E0888F9B8DCB
:102060008C8D981305C0E889F989808185FD24C08D
:10207000F62E0B8D10E00F5F1F4F0F731127E02E10
:102080008C8DE8120CC00FB607FCFACFE889F989ED
:10209000808185FFF5CFCE010E940510F1CF8B8D99
:1020A000FE01E80FF11DE35AFF4FF0820B8FEA8922
:1020B000FB898081806207C0EE89FF896083E8899F
:1020C000F98980818064808381E090E0DF91CF9105
:1020D0001F910F91FF90EF900895CF93DF93EC0144
:1020E000888D8823C9F0EA89FB89808185FD05C038
:1020F000A889B9898C9186FD0FC00FB607FCF5CF72
:10210000808185FFF2CFA889B9898C9185FFEDCFB9
:10211000CE010E940510E7CFDF91CF91089580E0B6
:1021200090E0892B29F00E94FB0F81110C94000094
:102130000895089585ED8093BC008091BC0084FDD6
:10214000FCCF1092A70408954091E201262F30E0C1
:10215000240F311D21323105DCF42091A7042430F5
:10216000C9F4FC0180E090E0861758F43091E20158
:102170002191DC01A054BE4FA30FB11D2C930196F9
:10218000F3CF8091E201680F6093E20180E008954F
:1021900081E0089582E008950895E091B50180916D
:1021A000B401E81730F4F0E0EF59FB4F808190E084
:1021B00008958FEF9FEF08959091B5018091B4013C
:1021C000981750F4E92FF0E0EF59FB4F208130E0F1
:1021D0009F5F9093B50102C02FEF3FEFC9010895B3
:1021E0008091B40190E02091B501821B910908957E
:1021F000CF92DF92EF92FF920F931F93CF93DF93D3
:102200007C01262F972F8A0180913D04882391F02D
:10221000C62FD72F6E01C40ED51ECC15DD0571F06B
:102220006991D701ED91FC910190F081E02DC701FA
:102230000995F3CF642F822F0E94A410C801DF916B
:10224000CF911F910F91FF90EF90DF90CF90089565
:10225000CF93DF931F92CDB7DEB7698320913D0402
:102260002223D1F020916004203240F021E030E0C0
:10227000FC013383228380E090E015C080913E040E
:10228000E82FF0E0E15CFB4F998190838F5F8093B2
:102290003E048093600405C061E0CE0101960E9477
:1022A000A41081E090E00F90DF91CF9108950E94FB
:1022B00051380F931F93CF93DF93EC01888199815D
:1022C000009729F02A813B812617370788F48B0174
:1022D0006F5F7F4F0E948737009761F099838883F3
:1022E0001B830A832C813D81232B11F4FC01108276
:1022F00081E001C080E0DF91CF911F910F9108959F
:10230000EF92FF920F931F93CF93DF93FC012481F1
:1023100035816115710511F480E019C04115510531
:10232000A9F07B01EC018A01020F131FB8010E9482
:102330005911882389F3288139818C819D81B701C6
:10234000820F931F0E9477381D830C8381E0DF91F9
:10235000CF911F910F91FF90EF900895CF93DF934E
:10236000EC0188819981009711F00E94BB3319829A
:1023700018821D821C821B821A82DF91CF910895E0
:10238000CF93DF93EC016115710561F0FB010190C2
:102390000020E9F73197AF01461B570B0E948011CF
:1023A000811103C0CE010E94AE11CE01DF91CF9109
:1023B0000895CF93DF93EC01FB0144815581608147
:1023C00071810E948011811103C0CE010E94AE1163
:1023D000CE01DF91CF910895EF92FF920F931F935B
:1023E000CF93DF938C017B016115710569F0FB01CF
:1023F00001900020E9F73197EF01C61BD70BBE0112
:102400000E945911811104C0C8010E94AE1108C078
:10241000F801D583C483B701808191810E94773808
:10242000C801DF91CF911F910F91FF90EF90089518
:10243000FC01808191810C94BB330F931F93CF9348
:10244000DF93CDB7DEB729970FB6F894DEBF0FBE86
:10245000CDBF8C01862FF801118210821382128267
:102460001582148250E0BE016F5F7F4F90E00E94A2
:102470007534BE016F5F7F4FC8010E94EC11299631
:102480000FB6F894DEBF0FBECDBFDF91CF911F9185
:102490000F910895DC01ED91FC910190F081E02D08
:1024A0000994EF92FF920F931F93CF93DF938C01C8
:1024B0007B01C0E0D0E0F701EC0FFD1F64916623C3
:1024C00061F0D801ED91FC910190F081E02DC801FF
:1024D0000995892B11F02196EECFCE01DF91CF9196
:1024E0001F910F91FF90EF9008956115710579F09C
:1024F000FB0101900020E9F73197AF01461B570B14
:10250000DC01ED91FC910280F381E02D099480E0E3
:1025100090E008954F925F926F927F92EF92FF92B8
:102520000F931F93CF93DF93CDB7DEB7A1970FB66D
:10253000F894DEBF0FBECDBF7C01FA01CB0119A21A
:10254000223008F42AE08E010F5D1F4F422E512CDD
:10255000612C712CBF01A30192010E944B37F9013C
:10256000CA01015011096A3014F4605D01C0695C50
:10257000D8016C93232B242B252B61F7B801C701BD
:102580000E947512A1960FB6F894DEBF0FBECDBFA4
:10259000DF91CF911F910F91FF90EF907F906F90FF
:1025A0005F904F9008954F925F926F927F928F92BB
:1025B0009F92AF92BF92CF92DF92EF92FF92CF9312
:1025C000DF93EC016A017B01B22E9A01AB01C701D6
:1025D000B6010E943237882319F064EA71E027C0FF
:1025E00026013701E89477F82FEF3FEF4FE75FE7D9
:1025F000C301B2010E94323781110DC02FEF3FEFAE
:102600004FE75FE7C301B2010E94AA3418161CF419
:1026100068EA71E00CC02FEF3FEF4FE75FE4C701BE
:10262000B6010E942D3718169CF46CEA71E0CE01B9
:10263000DF91CF91FF90EF90DF90CF90BF90AF9060
:102640009F908F907F906F905F904F900C94751239
:102650002FEF3FEF4FE75FECC701B6010E94AA34AE
:1026600087FDE3CF20E030E0A901C701B6010E9459
:10267000AA3487FF0AC06DE2CE010E944A124C01C3
:10268000F7FAF094F7F8F09402C0812C912CA12C69
:1026900060E070E080E09FE3AB1441F020E030E0C8
:1026A00040E251E40E948C36A394F6CF9B01AC012A
:1026B000C701B6010E9420362B013C010E94FE3664
:1026C0006B017C010E94AF349B01AC01C301B201DC
:1026D0000E941F362B013C012AE0B701A601CE0162
:1026E0000E948A127C01E80CF91CBB2031F06EE2DA
:1026F000CE010E944A12E80EF91EDB2CDD2029F1E2
:1027000020E030E040E251E4C301B2010E94103504
:102710002B013C010E94FE364B01A12CB12C2AE07A
:10272000B501A401CE010E948A12E80EF91EC5016E
:10273000B4010E94AF349B01AC01C301B2010E94FD
:102740001F362B013C01DA94D9CFC701DF91CF911D
:10275000FF90EF90DF90CF90BF90AF909F908F90C1
:102760007F906F905F904F90089560EB71E00C94B4
:1027700075121F920F920FB60F9211242F933F9351
:102780004F935F936F937F938F939F93AF93BF9379
:10279000EF93FF9388EA94E00E940510FF91EF9178
:1027A000BF91AF919F918F917F916F915F914F9169
:1027B0003F912F910F900FBE0F901F9018951F9271
:1027C0000F920FB60F9211242F938F939F93EF9335
:1027D000FF93E091B804F091B9048081E091BE04C8
:1027E000F091BF0482FD12C090818091C1048F5F7F
:1027F0008F732091C204821751F0E091C104F0E080
:10280000E855FB4F958F8093C10401C08081FF91F3
:10281000EF919F918F912F910F900FBE0F901F906E
:102820001895833081F028F4813099F08230A1F03E
:1028300008958730A9F08830B9F08430D1F48091C0
:1028400080008F7D03C0809180008F77809380000F
:10285000089584B58F7702C084B58F7D84BD0895B7
:102860008091B0008F7703C08091B0008F7D8093FE
:10287000B00008951F93CF93DF93282F30E0F90124
:10288000E45EFE4E8491F901E85FFE4ED491F901B9
:10289000EC50FF4EC491CC23C9F0162F81110E9439
:1028A0001114EC2FF0E0EE0FFF1FEE5EFF4EA5912E
:1028B000B4918FB7F894111105C09C91ED2FE0955C
:1028C000E92302C0EC91ED2BEC938FBFDF91CF9108
:1028D0001F910895CF93DF9390E0FC01E85FFE4ED7
:1028E0002491FC01EC50FF4E8491882361F190E02B
:1028F000880F991FFC01E45CFE4EC591D491FC0148
:10290000EE5EFF4EA591B491611109C09FB7F89496
:102910008881209582238883EC912E230BC062301E
:1029200061F49FB7F8943881822F80958323888340
:10293000EC912E2B2C939FBF06C08FB7F894E881A3
:102940002E2B28838FBFDF91CF9108952FB7F89456
:1029500060910C0270910D0280910E0290910F0215
:102960002FBF08951F920F920FB60F9211242F932D
:102970003F938F939F93AF93BF9380910C0290915D
:102980000D02A0910E02B0910F0230910B0226E0D1
:10299000230F2D3720F40296A11DB11D05C029E893
:1029A000230F0396A11DB11D20930B0280930C02EF
:1029B00090930D02A0930E02B0930F028091070234
:1029C00090910802A0910902B0910A020196A11DFE
:1029D000B11D8093070290930802A0930902B0935F
:1029E0000A02BF91AF919F918F913F912F910F90CC
:1029F0000FBE0F901F9018951F920F920FB60F9257
:102A000011242F933F934F935F936F937F938F93F3
:102A10009F93AF93BF93EF93FF93E0910201F091E7
:102A200003010995FF91EF91BF91AF919F918F9114
:102A30007F916F915F914F913F912F910F900FBEBA
:102A40000F901F9018951F920F920FB60F9211249E
:102A50002F933F934F935F936F937F938F939F93A6
:102A6000AF93BF93EF93FF93E0910001F0910101C9
:102A70000995FF91EF91BF91AF919F918F917F91B8
:102A80006F915F914F913F912F910F900FBE0F90DB
:102A90001F9018951F920F920FB60F9211242F932B
:102AA0003F934F935F936F937F938F939F93AF93D6
:102AB000BF93EF93FF938091B900887F803609F42C
:102AC0009CC068F5883209F45BC090F4803109F449
:102AD00054C038F4882309F4F6C0883009F44DC096
:102AE000F6C0883109F44CC0803209F45DC0EFC0F3
:102AF000803409F468C048F4803309F455C0883341
:102B000009F0E5C08093A504D8C0803509F44FC012
:102B1000883509F45DC0883409F0D9C0D6C0883939
:102B200009F4C7C0A8F4883709F467C038F48836B8
:102B300009F463C0803709F460C0C9C0883809F45B
:102B4000B8C0803909F45FC0803809F0C0C05BC0EC
:102B5000803B09F486C038F4803A09F466C0883AAC
:102B600009F47FC0B4C0803C09F4A7C0883C09F4D4
:102B7000A4C0883B09F48AC0AAC08091A20410C0F6
:102B80009091A4048091A304981770F5E091A40497
:102B900081E08E0F8093A404F0E0EF57FB4F80811B
:102BA0008093BB0085EC86C08093A5048EC0E09125
:102BB000A40481E08E0F8093A4048091BB00F0E018
:102BC000EF57FB4F80839091A4048091A3046EC0C3
:102BD000E091A40481E08E0F8093A4048091BB0057
:102BE000F0E0EF57FB4F80838091A60481116DC008
:102BF00081E08093A10484EA61C083E08093A7040C
:102C000010920602CFCF80910602803208F051C0A8
:102C1000E091060281E08E0F809306028091BB0056
:102C2000F0E0EA51FE4F8083BDCF85EC8093BC007D
:102C30001092A70480910602803230F4E0910602DF
:102C4000F0E0EA51FE4F10826091060270E0E091E0
:102C5000E401F091E50186EE91E0099510920602FB
:102C600036C084E08093A7041092E3011092E20141
:102C7000E091E001F091E10109958091E20181117B
:102C800005C081E08093E2011092C001E091E30170
:102C900081E08E0F8093E301F0E0E054FE4F8081ED
:102CA0008093BB009091E3018091E201981708F4B2
:102CB00079CF85E88093BC000AC085EC8093BC0086
:102CC0001092A70404C01092A5040E949A10FF91CC
:102CD000EF91BF91AF919F918F917F916F915F9194
:102CE0004F913F912F910F900FBE0F901F9018950D
:102CF0001092A70481E08093A6041092A10461E0E1
:102D000082E10E943A1461E083E10E943A14E9EB07
:102D1000F0E080818E7F808380818D7F808380E260
:102D20008093B80085E48093BC0008954F925F9231
:102D30006F927F928F929F92AF92BF92CF92DF92CB
:102D4000EF92FF920F931F93CF93DF93EC016A01F1
:102D50007B0128013901423051056105710510F4EC
:102D600080E073C089859A85AB85BC850196A11DDD
:102D7000B11D84179507A607B70790F38B889C8829
:102D8000AD88BE888F89803129F4BB27AF2D9E2D59
:102D90008D2D09C0DB01CA0147E0B695A79597952F
:102DA00087954A95D1F7880E991EAA1EBB1E809161
:102DB0002B0190912C01A0912D01B0912E0188162C
:102DC0009906AA06BB0679F48F898031A1F4DD2427
:102DD000EE24FF24C601880F991FFC01EF5EFD4F12
:102DE0005182408219C040E0C501B4010E947C1AA2
:102DF0008111EACFB5CFE894C7F8DD24EE24FF2493
:102E0000C601880F991F880F991FFC01EF5EFD4FC7
:102E100040825182628273828091BB018160809383
:102E2000BB018A89823080F08D819E81AF81B88517
:102E3000880E991EAA1EBB1E8092BC019092BD01F5
:102E4000A092BE01B092BF0181E0DF91CF911F91AE
:102E50000F91FF90EF90DF90CF90BF90AF909F9039
:102E60008F907F906F905F904F9008958F929F9278
:102E7000AF92BF92CF92DF92EF92FF920F931F9388
:102E8000CF93DF93FC0181859285A385B48501965C
:102E9000A11DB11D84179507A607B70710F480E0A0
:102EA0005CC083899489A589B689C789C03129F412
:102EB000852E962EA72EBB2409C04A015B01C7E0D0
:102EC000B694A79497948794CA95D1F7E9016A01BB
:102ED0007B018F01BC01CD01680D791D8A1D9B1DF1
:102EE00080902B0190902C01A0902D01B0902E018C
:102EF000681579058A059B0599F4F8018789803161
:102F0000A9F4B701A601552766277727440F551F57
:102F1000FA01EF5EFD4F80819181A0E0B0E018C022
:102F200040E00E947C1A8111E8CFB9CFB701A60119
:102F30004F77552766277727440F551F440F551F96
:102F4000FA01EF5EFD4F80819181A281B381BF7054
:102F500088839983AA83BB8381E0DF91CF911F91FE
:102F60000F91FF90EF90DF90CF90BF90AF909F9028
:102F70008F9008950F934091BC015091BD016091D5
:102F8000BE017091BF01411551056105710599F0B0
:102F9000082F21E132E080911104909112040E94E7
:102FA000850A882349F01092BC011092BD0110924D
:102FB000BE011092BF0181E00F9108953F924F92A0
:102FC0005F926F927F928F929F92AF92BF92CF92B9
:102FD000DF92EF92FF920F931F93CF93DF93CDB7C2
:102FE000DEB72C970FB6F894DEBF0FBECDBF5C01E5
:102FF000DC015B968D909C905C971696CD90DD9051
:10300000ED90FC901997C114D104E104F10439F05A
:10301000BFEFCB1ADB0AEB0AFB0A312C07C0F40125
:10302000C080D180E280F38033243394F401818521
:103030009285A385B4859C01AD012F5F3F4F4F4F13
:103040005F4F29873A874B875C87260137011D82AE
:103050001E821F821886F40181859285A385B4851E
:103060002D813E814F815885281739074A075B0714
:1030700008F063C089859A85AB85BC858C159D0554
:10308000AE05BF0550F482E0C82ED12CE12CF12C06
:1030900092E0492E512C612C712C9E012F5F3F4FE5
:1030A000B701A601C4010E943617882309F445C060
:1030B00089819A81AB81BC81892B8A2B8B2B41F032
:1030C000260137019FEF491A590A690A790A05C092
:1030D000C414D504E604F70491F02D813E814F819C
:1030E00058852F5F3F4F4F4F5F4F2D833E834F8358
:1030F00058873FEFC31AD30AE30AF30AACCF0FEFA6
:103100001FEF2FEF3FE0B301A201C4010E9496160A
:10311000882399F0D50116964D915D916D917C9122
:103120001997411551056105710549F09301820117
:10313000C4010E949616811102C080E02EC0D50104
:1031400016964D925D926D927C921997332051F0B4
:10315000D301C2010196A11DB11DF40180839183A9
:10316000A283B383F5018789908DA18DB28D892BC0
:103170008A2B8B2B69F4D50157964D925D926D92F7
:103180007C925A9714968C911497806814968C931D
:10319000F50184818062848381E02C960FB6F894D7
:1031A000DEBF0FBECDBFDF91CF911F910F91FF907A
:1031B000EF90DF90CF90BF90AF909F908F907F90D7
:1031C0006F905F904F903F900895AF92BF92CF92D3
:1031D000DF92EF92FF920F931F93CF93DF93EC0157
:1031E0006901C801820F931F8130924008F070C0BE
:1031F0008E81882371F088819981AA81BB814817CB
:1032000059076A077B0729F48F819885C816D90664
:10321000B0F5488359836A837B838B85833039F08B
:1032200089E0440F551F661F771F8A95D1F79A01D1
:10323000AB0161E1CE010E94230A882319F083E0EB
:103240008D8346C00E94A6145B010E94D2098A8722
:103250008F3F49F40E94A6146A197B096D327140B0
:10326000A0F38FE003C08E3F31F08DE08D83CE015F
:103270000E94C0092DC018861F8281E08E838F8135
:1032800098858C159D0540F40E94D2098F81988500
:10329000019698878F83F3CF6701E00EF11ECE145D
:1032A000DF0431F00E94D209F60181936F01F7CF5C
:1032B0008F819885080F191F18870F8389858823A8
:1032C00019F00115124048F0CE010E94F00905C026
:1032D000CE010E94C00980E001C081E0DF91CF9162
:1032E0001F910F91FF90EF90DF90CF90BF90AF9024
:1032F00008954F925F926F927F92AF92BF92CF925A
:10330000DF92EF92FF920F931F93CF93DF9300D042
:1033100000D0CDB7DEB78C0149835A836B837C83A1
:103320005901C12CD12C7601412C82E0582E612C00
:10333000712C49815A816B817C819E012F5F3F4FA7
:10334000C8010E943617882351F1D301C201F80148
:10335000058404C0880F991FAA1FBB1F0A94D2F7C7
:10336000C80ED91EEA1EFB1E49815A816B817C81E1
:103370008789803129F088EF9FEFAFEFBFE004C06D
:1033800088EF9FEFA0E0B0E0481759076A077B0776
:1033900080F2F501C082D182E282F38281E00F9057
:1033A0000F900F900F90DF91CF911F910F91FF9091
:1033B000EF90DF90CF90BF90AF907F906F905F9035
:1033C0004F9008951F93CF93DF93EC0180E2689FA5
:1033D000F00111249F012F5E3D4FD9011B969C9156
:1033E000917129F0842F827411F080E058C0142F5D
:1033F0006A8B80912B0190912C01A0912D01B091AD
:103400002E018E879F87A88BB98BEF5EFD4F448975
:10341000558960E070E0BA01552744274F8B588FDB
:10342000698F7A8F828D938DA0E0B0E0482B592B65
:103430006A2B7B2B4F8B588F698F7A8FD9011B9604
:103440008C91887151F4848D958DA68DB78D8B8B61
:103450009C8BAD8BBE8B81E00DC0803131F69E011F
:103460002D5E3F4F8B8D9C8D0E947919882309F426
:10347000BCCF84E08D83812F8F708C831E821F824E
:10348000188619861A861B861C861D8616FF06C09E
:10349000CE01DF91CF911F910C94B52181E0DF9196
:1034A000CF911F9108950F93CF939091BB019923D2
:1034B000F9F0C82F40912B0150912C0160912D0102
:1034C00070912E01082F21E132E08091110490913A
:1034D00012040E94850A811102C080E00AC0CC2338
:1034E00039F08C2F0E94BA178823B9F31092BB01D0
:1034F00081E0CF910F9108958F929F92AF92BF92EA
:10350000EF92FF920F931F93CF934B015C01C42F57
:1035100080912B0190912C01A0912D01B0912E0151
:1035200088159905AA05BB0509F181E00E94531A87
:10353000811102C080E020C081E1E82E82E0F82EF7
:1035400000E012E020E030E0B501A4018091110418
:10355000909112040E94E518882361F380922B0158
:1035600090922C01A0922D01B0922E018091BB016E
:10357000C82BC093BB0181E0CF911F910F91FF90A9
:10358000EF90BF90AF909F908F9008951F93CF932F
:10359000DF93FC0125812223E9F1162FEC018481C0
:1035A00087FF2DC0668577858089918941E00E94DB
:1035B0007C1A882379F1EA8980E2E89FF0011124DE
:1035C000DF01AF5EBD4F109729F18D81823050F43D
:1035D0004B895C896D897E895C964D935D936D9373
:1035E0007C935F978F89988DA98DBA8DEF5EFD4F83
:1035F000938F828FB58BA48B8C818F778C831111E5
:1036000003C08C818F7E8C83812FDF91CF911F919E
:103610000C94531A80E0DF91CF911F9108958F92FF
:103620009F92AF92BF92CF92DF92EF92FF920F9351
:103630001F93CF93DF93EC018D81811102C080E055
:1036400077C00B891C892D893E8904171507260729
:103650003707A8F36A017B01823029F4CA86DB862A
:10366000EC86FD860DC0C114D104E104F10451F4CF
:103670001E821F82188619861A861B861C861D8646
:1036800081E056C08A849B84AC84BD84EB8DFC8D24
:10369000258530E0275F3F4FB501A4014150510916
:1036A00061097109022E04C0769567955795479573
:1036B0000A94D2F7D701C6010197A109B10904C044
:1036C000B695A795979587952A95D2F7841795076C
:1036D000A607B70720F089288A288B2849F44F8944
:1036E000588D698D7A8D4E835F836887798704C092
:1036F000841B950BA60BB70B4C015D018E010A5F75
:103700001F4F81149104A104B10409F4A7CF4E8185
:103710005F816885798598018B8D9C8D0E94361715
:1037200091E0891A9108A108B1088111EACF87CFE9
:10373000DF91CF911F910F91FF90EF90DF90CF908D
:10374000BF90AF909F908F9008952F923F924F928D
:103750005F926F927F928F929F92AF92BF92CF9221
:10376000DF92EF92FF920F931F93CF93DF9300D0DE
:1037700000D01F92CDB7DEB77C015B013A01DC01BE
:1037800014961C91149715968C918130B9F411FF01
:1037900015C012FF1BC0F7014389548965897689DA
:1037A00082859385A485B58584179507A607B707F5
:1037B00069F0C7010E940F1B811108C081E090E0F1
:1037C000F7019383828380E090E03EC1630112950C
:1037D0001F70109511701D8381C0D7015B968D916C
:1037E0009C915C97FC0154805A94B901A80129E08E
:1037F00076956795579547952A95D1F7542211707C
:10380000552009F477C080E092E0801B910B4601BF
:103810008C159D0508F44C01D7015B962D913C91C8
:103820005C9716968D919D910D90BC91A02D02975D
:10383000A109B109F901058404C0880F991FAA1FC5
:10384000BB1F0A94D2F74685578560897189840F1A
:10385000951FA61FB71F9C01AD01250D311D411DF0
:10386000511D19012A01811432E0930609F089C023
:1038700080912B0190912C01A0912D01B0912E01EE
:1038800082159305A405B50559F48FEF9FEFDC0170
:1038900080932B0190932C01A0932D01B0932E01C6
:1038A0000D819501B201A101809111049091120442
:1038B0000E94850A882309F481CF9EEFB91AC8189F
:1038C000D908F70182859385A485B585880D991D52
:1038D000A11DB11D82879387A487B587D7011A964A
:1038E0000D911D912D913C911D97C114D10409F0AA
:1038F00074CF88C00115110509F085CF16964D913A
:103900005D916D917C911997411551056105710586
:1039100059F457968D919D910D90BC91A02D0097D3
:10392000A105B10541F521C09E012F5F3F4F0E94C7
:103930003617882309F448CF89819A81AB81BC81ED
:10394000F701238D348DF9012789203129F048EFC3
:103950005FEF6FEF7FE004C048EF5FEF60E070E083
:1039600084179507A607B70730F0C7010E94DE1736
:10397000811149CF23CFF70186839783A087B18731
:1039800042CF0115110531F5D7011A964D915D9180
:103990006D917C911D9753968D919D910D90BC9149
:1039A000A02D481759076A077B07A0F081E00E9405
:1039B000531A882309F402CF20922B0130922C0154
:1039C00040922D0150922E018091BB018160809325
:1039D000BB0108C041E0C201B1010E947C1A8823EA
:1039E00009F4ECCED501F801EF5EFD4FCF01880D53
:1039F000991DE817F90719F02D912193FACFA80C1A
:103A0000B91C5DCF53968D919D910D90BC91A02DC9
:103A100080179107A207B30740F4F701038B148BBB
:103A2000258B368B848180688483D70114968C9192
:103A300083FD02C0C30108C061E0C7010E94C61A2D
:103A4000882309F4BBCEF6CF0F900F900F900F9004
:103A50000F90DF91CF911F910F91FF90EF90DF902A
:103A6000CF90BF90AF909F908F907F906F905F901E
:103A70004F903F902F900895CF93DF931F92CDB733
:103A8000DEB7698341E050E0BE016F5F7F4F0E9467
:103A9000A51B0F90DF91CF910895FF920F931F9375
:103AA000CF93DF93EC018D81813011F58C8181FF03
:103AB0001FC082FF0DC04B895C896D897E898A8514
:103AC0009B85AC85BD8584179507A607B70799F434
:103AD0000091110410911204C8010E940D0A0E9465
:103AE000D209F82EC8010E94C0098FEFF81649F0DC
:103AF00080E090E02AC0CE010E940F1B8111E8CF28
:103B0000F7CF8C8185FF08C060E0CE010E94C61A05
:103B10008C818F7D8C83ECCF4091BC015091BD0195
:103B20006091BE017091BF01452B462B472B21F0C0
:103B300080E00E94BA17DCCF80618C832A853B85A8
:103B4000317080E092E0821B930BDF91CF911F9147
:103B50000F91FF9008952F923F924F925F926F9234
:103B60007F928F929F92AF92BF92CF92DF92EF920D
:103B7000FF920F931F93CF93DF93EC016B014A01E8
:103B80008D81811103C08FEF9FEFD7C08C8180FFA3
:103B9000FACF4B885C886D887E884A855B856C850A
:103BA0007D85C401A0E0B0E093018201041B150BE8
:103BB000260B370B081719072A073B0718F4420191
:103BC000841A950A54011E0126E0220E311CA1140C
:103BD000B10409F47EC04A855B856C857D852A0128
:103BE00081E05822ED818A019B0189E03695279575
:103BF000179507958A95D1F78B8D9C8DE23061F4EE
:103C0000FC01828D938DA48DB58DBC01CD01600F1B
:103C1000711F821F931F3FC0FC0174807A94702231
:103C200041145104C9F4711017C0452B462B472B82
:103C300049F48F89988DA98DBA8D8E839F83A8872B
:103C4000B9870AC04E815F816885798591010E949C
:103C50003617882309F497CFEB8DFC8D8E819F81D9
:103C6000A885B9850297A109B109058404C0880F08
:103C7000991FAA1FBB1F0A94D2F7468557856089F2
:103C80007189840F951FA61FB71FBC01CD01670D59
:103C9000711D811D911D20E032E024193509350187
:103CA0002A153B0508F439012C8126FD04C0611456
:103CB000F2E07F0681F400912B0110912C012091FC
:103CC0002D0130912E016017710782079307B1F41F
:103CD00002C0C40132C040E00E947C1A882309F46B
:103CE00052CFF201EF5EFD4FD601CF01860D971D39
:103CF000E817F90789F021912D93FACF7601830116
:103D00009201AB01BC0180911104909112040E94B8
:103D1000E518882309F437CFC60CD71C8A859B8504
:103D2000AC85BD85860D971DA11DB11D8A879B871A
:103D3000AC87BD87A618B7084ACFDF91CF911F91F6
:103D40000F91FF90EF90DF90CF90BF90AF909F903A
:103D50008F907F906F905F904F903F902F9008953D
:103D60004F925F926F927F929F92AF92BF92CF924B
:103D7000DF92EF92FF920F931F93CF93DF93CDB714
:103D8000DEB72B970FB6F894DEBF0FBECDBF7C0118
:103D9000DC011596AC90A1108CC1FE0131966F012B
:103DA00090E28BE08E0F91938E13FDCFDA0130E01D
:103DB00087E09D91992339F19E3219F0ECE1F0E111
:103DC0000AC08A3009F476C138E08AE0F2CF319631
:103DD000491709F46FC144914111F9CF831708F4D1
:103DE00069C14FED490F4E3508F064C141E0430F02
:103DF000F601E30FF11D3FE9390F3A3108F4905213
:103E00009083342FD6CF8981803209F453C1B22EEA
:103E10008B01DB015B968D919C915C97F701948FF0
:103E2000838F16961D921D921D921C921997FB016D
:103E30001286138614861586712CF8018285938567
:103E4000A485B58543895489658976898417950742
:103E5000A607B70708F061C025E0B695A795979526
:103E600087952A95D1F7F82FFF706F2ED8011596F8
:103E70008C91823008F41EC1C8010E94A00B97FDEE
:103E800019C1F80182859385A485B5854F96A11D3A
:103E9000B11D82879387A487B587F0E26F9EC0012A
:103EA0001124BC016F5E7D4F6115710509F402C1DB
:103EB000DB012C91222319F0253EC1F427C071109B
:103EC0000EC0F701628A40912B0150912C01609144
:103ED0002D0170912E0146875787608B718BFC01F5
:103EE000EF5EFD4F8081811113C015C04BE050E0A3
:103EF000C6010E945638892B09F09FCF8B2D807305
:103F0000803309F4D7C04B2D662DCEC07720C9F27F
:103F10007724739492CF772473948B2D827182319E
:103F200009F0C8C07720D1F0D7011E966D917D9120
:103F30008D919C91519741E00E947C1A882309F44D
:103F4000B9C0F7016289F0E26F9FB00111246F5E82
:103F50007D4F6115710509F07AC0ACC0D801159686
:103F60008C91823009F4A6C0C8010E94DE17882314
:103F700009F4A0C0D8015B96ED91FC915C97169670
:103F80004D905D906D907C901997B2E04B1A51085E
:103F900061087108058404C0440C551C661C771C1C
:103FA0000A94D2F786859785A089B189480E591E53
:103FB0006A1E7B1E9480E1E04E1A51086108710868
:103FC000992011F181E00E94531A882309F472C0EC
:103FD000E1E1F2E0119224E0E131F207D9F7D301F7
:103FE000C201890D911DA11DB11D80932B019093DC
:103FF0002C01A0932D01B0932E018091BB01816013
:104000008093BB019A94DCCFD8015B96ED91FC9133
:104010005C9780E092E0A0E0B0E0058404C0880FE7
:10402000991FAA1FBB1F0A94D2F7F801438954892C
:1040300065897689840F951FA61FB71F838B948B84
:10404000A58BB68BD70152961C9261E172E080E29B
:10405000FB0111928A95E9F78BE0F601DB010190F3
:104060000D928A95E1F781E298E2DB0151969C93EB
:104070008E93509720E038E01F963C932E931E9726
:1040800053969C938E93529759969C938E935897E0
:1040900057963C932E93569781E00E94531A88239B
:1040A00049F04B2DF7016289C7010E94E219A82E41
:1040B00001C0A12C8A2D2B960FB6F894DEBF0FBE3F
:1040C000CDBFDF91CF911F910F91FF90EF90DF90C7
:1040D000CF90BF90AF909F907F906F905F904F90E8
:1040E0000895CF93DF93EC0161E00E94C61A882304
:1040F00011F01D8281E0DF91CF9108958FB7F89480
:10410000809110028FBF0895CF93DF93E1E2F1E138
:104110008491EDE0F1E1D491E9EFF0E1C491CC2399
:1041200091F081110E941114EC2FF0E0EE0FFF1FAF
:10413000E651FF4EA591B491EC91ED2381E090E022
:1041400021F480E002C080E090E0DF91CF910895FB
:104150009091A7049111FCCF91E09093A7049093C4
:10416000A6042FEF2093A5041092A404260F2093F9
:10417000A3049093A2049091A204880F892B8093AA
:10418000A2048091A104813061F41092A104809175
:10419000A2048093BB008091BC0083FDF8CF85EC26
:1041A00001C085EE8093BC008091A7048130E1F3CB
:1041B0008091A404861710F46091A404A1E8B4E0EF
:1041C00021E634E0F9018E2F821B861718F48D91B9
:1041D0008193F9CF862F08952091600490915F0418
:1041E000213208F04AC08091A7048111FCCF32E04F
:1041F0003093A70431E03093A6043FEF3093A50439
:104200001092A4042093A304AFE3B4E041E854E087
:10421000FA013E2F341B321718F43D913193F9CF38
:104220001092A2042091A204990F922B9093A204C1
:104230009091A104913061F41092A1049091A20494
:104240009093BB009091BC0093FDF8CF95EC01C01A
:1042500095EE9093BC009091A7049230E1F3909179
:10426000A5049F3F79F08091A504803241F08091B0
:10427000A504803331F084E005C081E003C082E012
:1042800001C083E010923E041092600410923D043D
:104290000895CF93DF9340E061E083E00E94B80D82
:1042A000982F9695969596959E70292F220F220FFE
:1042B000920F8F70890FC7E3D4E0888340E061E0FC
:1042C00084E00E94B80D982F9695969596959E70CD
:1042D000292F220F220F920F8F70890F898340E0C0
:1042E00061E085E00E94B80D982F96959695969579
:1042F0009670292F220F220F920F8F70890F8A83B9
:1043000040E061E086E00E94B80D982F9695969562
:1043100096959670292F220F220F920F8F70890F7A
:104320008B8340E061E088E00E94B80D84FB992710
:1043300090F9990F292F220F220F920F8F70890F5A
:104340008C8340E061E089E00E94B80D982F96953B
:10435000969596959E71292F220F220F920F8F709E
:10436000890F8D83DF91CF9108958F929F92AF92A5
:10437000BF92CF92DF92EF92FF920F931F93CF9352
:10438000DF9300D000D0CDB7DEB7FC01858181304E
:1043900079F5948191FF2CC0438954896589768988
:1043A000452B462B472B09F45DC07F0140E050E0D0
:1043B000BA01CF010E940F1B8823D1F0F701878833
:1043C000908CA18CB28CC38CD48C82E090E0A0E065
:1043D000B0E0F60180839183A283B3839E012F5FB7
:1043E0003F4FB501A401C6010E943617811102C0DA
:1043F00080E038C000E010E09801B501A401C601DA
:104400000E9496168823A1F389809A80AB80BC8095
:10441000F6018789803129F088EF9FEFAFEFBFE089
:1044200004C088EF9FEFA0E0B0E088169906AA06C6
:10443000BB06A0F2F701178A108E118E128E138A16
:10444000148A158A168A84818068848361E0C70192
:104450000E94C61A882361F240E050E0BA01C70109
:104460000E940F1B0F900F900F900F90DF91CF9134
:104470001F910F91FF90EF90DF90CF90BF90AF9082
:104480009F908F900895CF93DF93FC012581222385
:1044900011F080E049C0EC01809176058031C1F4D3
:1044A00082E08583178A108E118E128E8091770597
:1044B00090917805A0E0B0E025E0880F991FAA1F31
:1044C000BB1F2A95D1F7838B948BA58BB68B19C014
:1044D0008032F9F683E085834091790550917A0521
:1044E00060917B0570917C05478B508F618F728F37
:1044F0009F012D5E3F4F8FE595E00E94791988233B
:1045000041F28FE595E09C8F8B8F81E08C831E823A
:104510001F82188619861A861B861C861D861E8693
:104520001F86188A198A1A8ADF91CF9108952F92CF
:104530003F924F925F926F927F928F929F92AF9233
:10454000BF92CF92DF92EF92FF920F931F93CF9380
:10455000DF93CDB7DEB7C756D1090FB6F894DEBFEB
:104560000FBECDBF3C015B01A6964FAFA69719A227
:1045700018A281E891E09F8F8E8F1BA21C821B8264
:104580009A8389831E824E018EE1880E911CC4019C
:104590000E9443227501FE0131966F0124011F0123
:1045A0006FE270E0C7010E946C380097F1F1F701EB
:1045B00020812F3221F4FFEFEF1AFF0AF1CF8E197D
:1045C0008D3008F08CE0082F10E0A801B701CE0173
:1045D000885A9F4F0E947E38E8E5F0E0EC0FFD1FFF
:1045E000E00FF11F1082C6010E94712021E0AE0190
:1045F000485A5F4FB201C6010E94B01E81110AC025
:104600001EAE1DAE81E891E09CAF8BAF21961FAE30
:10461000219717C0E00EF11EC2010E947120942D57
:10462000852D2601C92ED82EBBCFC7018A199B091B
:10463000A8969FAF8EAFA897B201CE01CB960E94ED
:10464000F50AA896EEADFFADA897AE0EBF1EF50118
:104650008081811109C0BE01655C7F4FC1010E944C
:10466000F50A40EA51E032C019A218A281E891E0AF
:104670009F8F8E8F1BA221968FAD2197811104C031
:10468000C3010E94580B26C0A6962FADA697A50180
:10469000BE01655C7F4FC4010E94B01E882381F378
:1046A000CE01CB960E947120A6968FADA6978670FC
:1046B000863039F449A95AA96BA97CA9C4010E9482
:1046C0000F1BB401C1010E94F50AA501B101C3018C
:1046D0000E946B0BC301C959DF4F0FB6F894DEBFC0
:1046E0000FBECDBFDF91CF911F910F91FF90EF9043
:1046F000DF90CF90BF90AF909F908F907F906F9002
:104700005F904F903F902F900895CF93DF93CDB758
:10471000DEB7E6970FB6F894DEBF0FBECDBF0E949E
:10472000F10BCE014C960E94580B47E169E274E010
:10473000CE0101960E949722BE016F5F7F4FCE018E
:104740004C960E94F50D61EE70E1CE014C960E94F0
:10475000511280E00E94EF0C682FCE014C960E940F
:10476000000981E00E94EF0C682FCE014C960E9458
:10477000000982E00E94EF0C682FCE014C960E9447
:104780000009CE014C960E94B5136FEC70E1CE018A
:104790004C960E94511284E00E94EF0C682FCE01CB
:1047A0004C960E94000985E00E94EF0C682FCE0114
:1047B0004C960E94000986E00E94EF0C682FCE0103
:1047C0004C960E940009CE014C960E94B5136CEBEA
:1047D00070E1CE014C960E945112409124045091F8
:1047E0002504609126047091270423E0CE014C96A5
:1047F0000E94D312CE014C960E94B51368EA70E174
:10480000CE014C960E945112CE014C960E94460B4E
:104810000E94EB0BE6960FB6F894DEBF0FBECDBF3D
:10482000DF91CF910895CF93DF9380E00E94EF0C4A
:10483000C3E1D4E08E8B81E00E94EF0C8F8B82E08D
:104840000E94EF0C888F8FE5898F87E00E94EF0C24
:104850008A8F88E00E94EF0C8B8F89E00E94EF0C1A
:104860008C8F8AE00E94EF0C8D8F8EE28E8F83E614
:104870008F8F83E788A386E789A31AA2DF91CF9160
:10488000089569E870E188EA94E00E94511280E09E
:104890000E94EF0C682F88EA94E00E94261081E0C5
:1048A0000E94EF0C682F88EA94E00E94261082E0B4
:1048B0000E94EF0C682F88EA94E00E94261088EA94
:1048C00094E00E94B5136AE670E188EA94E00E94E1
:1048D000511284E00E94EF0C682F88EA94E00E9455
:1048E000261085E00E94EF0C682F88EA94E00E9471
:1048F000261086E00E94EF0C682F88EA94E00E9460
:10490000261088EA94E00E94B5136BE470E188EA0F
:1049100094E00E94511287E00E94EF0C682F88EA11
:1049200094E00E94261088E00E94EF0C682F88EA2D
:1049300094E00E94261089E00E94EF0C682F88EA1C
:1049400094E00E9426108AE00E94EF0C682F88EA0B
:1049500094E00E94261088EA94E00E94B5136CE26D
:1049600070E188EA94E00E94511240912404509131
:104970002504609126047091270423E088EA94E0DE
:104980000E94D31288EA94E00C94B5138F929F9200
:10499000AF92BF92CF92DF92EF92FF92CF93DF93CD
:1049A000C82F83E595E09093120480931104CC23E3
:1049B00069F1C53010F080E00DC140E060E070E0CA
:1049C000CB010E947C1A8823B1F320E1C29FC00171
:1049D00011248F5F9D4FFC01E254FE4F20812F7701
:1049E00051F73C9640815181628173814436510573
:1049F0006105710500F33497C080D180E280F380B7
:104A0000C114D104E104F10421F4D5CFC12CD12C7F
:104A1000760140E0C701B6010E947C1A882359F252
:104A200080911C0290911D028115924021F6A09167
:104A30002102AA2309F4BFCF60911F0270912002C6
:104A40006115710509F4B7CF20911E02222309F4E4
:104A5000B2CFA09371052093630580E030E0E1E0E0
:104A6000F0E0C82FAF01082E02C0440F551F0A9472
:104A7000E2F72417350741F0982F8F5F983089F7B8
:104A800089E080936C0597CF80936C052091270275
:104A9000309128022115310519F040E050E008C09E
:104AA0002091350230913602409137025091380200
:104AB0002093640530936505409366055093670520
:104AC00046015701860E971EA11CB11C80927205EB
:104AD00090927305A0927405B0927505E091220240
:104AE000F0912302F0937805E0937705B0E00E94FF
:104AF000CE35860E971EA81EB91E8092790590921B
:104B00007A05A0927B05B0927C0585E0EE0FFF1F31
:104B10008A95E1F7E150FE4FEF2FFF27E6958E0EC5
:104B20009F1EA11CB11C80926D0590926E05A092F3
:104B30006F05B09270052091240230912502211555
:104B4000310521F0A90160E070E008C04091310218
:104B5000509132026091330270913402D701C60144
:104B600088199909AA09BB09840F951FA61FB71FA9
:104B700004C0B695A79597958795CA95D2F7809367
:104B8000680590936905A0936A05B0936B05853F0E
:104B90002FE09207A105B10510F48CE018C0853F05
:104BA0009F4FA105B10510F480E111C080913D0235
:104BB00090913E02A0913F02B0914002809379050E
:104BC00090937A05A0937B05B0937C0580E2809357
:104BD000760581E0DF91CF91FF90EF90DF90CF904D
:104BE000BF90AF909F908F9008958F929F92AF92B9
:104BF000BF92CF92DF92EF92FF92CF938091820586
:104C0000882321F08DE795E00E94712010925E05C7
:104C100010925C0510925905109258058AE0809315
:104C200057050E94A6146B017C0161E08091570535
:104C30000E946A1461E0809157050E943A14CFB730
:104C4000F8948091B705811127C0EEEFF0E18491CF
:104C5000E2E1F1E19491E82FF0E0EE0FFF1FE45C58
:104C6000FE4EA591B491EC91E92321F461E08AE034
:104C70000E943A1461E08AE00E946A148CB5806157
:104C80008CBD8CB580648CBD61E08DE00E946A149F
:104C900061E08BE00E946A148091B7058F5F80937A
:104CA000B705CFBF82E58093510581E0809352051F
:104CB00080915105909152050E940A0ACAE08FEF37
:104CC0000E94CB09C150D9F783E595E00E940D0AF7
:104CD00020E030E0A90160E083E595E00E94230A2E
:104CE000C82F80935D05813049F00E94A6146C198D
:104CF0007D09613D774060F381E054C02AEA31E0EC
:104D000040E050E068E083E595E00E94230A82FFDE
:104D100003C0C0935E050EC0C4E00E94D209809318
:104D20005D05C150D1F78A3A11F082E03BC082E0C4
:104D300080935E0580915E05823021F0812C912C5C
:104D4000540105C0812C912CA12C80E4B82E20E0C8
:104D500030E0A90167E383E595E00E94230AA501FD
:104D6000940169E283E595E00E94230A80935D0542
:104D7000882349F00E94A6146C197D09613D774093
:104D800030F388E00FC080915E05823001F520E0AD
:104D900030E0A9016AE383E595E00E94230A8823B5
:104DA00041F086E08093580583E595E00E94C009B4
:104DB00029C00E94D209807C803C19F483E0809352
:104DC0005E050E94D2090E94D2090E94D20983E5A1
:104DD00095E00E94C00980E58093510581E08093B1
:104DE00052050E94C624882341F08DE795E00E9479
:104DF000432291E0811107C005C080E00E94C624D3
:104E00008111F3CF90E0892FCF91FF90EF90DF9049
:104E1000CF90BF90AF909F908F9008956F927F92A8
:104E20008F929F92AF92BF92CF92DF92EF92FF92BA
:104E30000F931F93CF93DF93CDB7DEB7C754D1093C
:104E40000FB6F894DEBF0FBECDBF6C015B0119A297
:104E500018A281E891E09F8F8E8F1BA21C821B827B
:104E60009A8389831E82812C912C7E018EE1E80E2B
:104E7000F11C0DE715E0772473949401F601E80D19
:104E8000F91D80818F3211F42F5F3F4FFE01FB9699
:104E900080E090E0D601A20FB31F4C914F3249F051
:104EA000442339F001962F5F3F4F41938C30910599
:104EB00089F7EBE3F0E0EC0FFD1FE80FF91F10821C
:104EC000F601E20FF31F80818F3211F42F5F3F4F05
:104ED0004901F601E20FF31F66246394808181117A
:104EE00001C0612C20E030E0462D4725BE01655C05
:104EF0007F4FC801F5010995811109C0F5E00D3713
:104F00001F0719F0C8010E94712080E029C06620A7
:104F1000C1F021E0AE01455C5F4FB801C7010E94BE
:104F2000B01E682E85E00D371807A1F0C8010E9459
:104F30007120662051F3902F812F8701E92EF82EE2
:104F40009CCFE5E00D371E0719F0C8010E947120C3
:104F500081E006C06620C9F28E010F5F1F4FEBCFC4
:104F6000C95BDF4F0FB6F894DEBF0FBECDBFDF9138
:104F7000CF911F910F91FF90EF90DF90CF90BF9056
:104F8000AF909F908F907F906F900895CF93DF9315
:104F9000BC0188EA94E00E945112EC0188EA94E096
:104FA0000E94B5138C0F9D1FDF91CF910895FF9242
:104FB0000F931F93CF93DF93C0913804D09139049E
:104FC00000913A04F0903B0410913C0460E371E1DD
:104FD00088EA94E00E9451124F2D50E060E070E0AA
:104FE0002AE088EA94E00E948A126FE288EA94E05C
:104FF0000E944A12402F50E060E070E02AE088EA08
:1050000094E00E948A126FE288EA94E00E944A12B9
:10501000412F50E060E070E02AE088EA94E00E94CE
:105020008A1260E288EA94E00E944A124D2F50E012
:1050300060E070E02AE088EA94E00E948A126AE365
:1050400088EA94E00E944A12CA3028F460E388EAB1
:1050500094E00E944A124C2F50E060E070E02AE099
:1050600088EA94E0DF91CF911F910F91FF900C940B
:105070008A12CF93DF93CDB7DEB7C955D1090FB6EA
:10508000F894DEBF0FBECDBF789484B5826084BD36
:1050900084B5816084BD85B5826085BD85B581603C
:1050A00085BD80916E00816080936E0010928100BA
:1050B0008091810082608093810080918100816075
:1050C0008093810080918000816080938000809136
:1050D000B10084608093B1008091B00081608093C2
:1050E000B00080917A00846080937A0080917A0089
:1050F000826080937A0080917A008E7F80937A001C
:1051000080917A00806880937A001092C10010929A
:1051100014041092130410921604109215041092A5
:105120001704109218041092190410921A0481E0C6
:1051300090E0A0E0B0E080931B0490931C04A09347
:105140001D04B0931E0410921F04109220041092AC
:105150002104109222041092230410922804109229
:105160003604109224041092250410922604109202
:10517000270460E082E00E946A1462E083E00E94FB
:105180006A1460E085E00E946A1461E084E00E9495
:105190006A1460E084E00E943A140E943B0C109272
:1051A000B5011092B40110923E04109260040E9466
:1051B000781682E3898321E041E060E2CE01019626
:1051C0000E948B0C41E060E2CE0101960E94530CDC
:1051D0008981823391F5198221E041E062E2CE01BA
:1051E00001960E948B0C41E062E2CE0101960E9482
:1051F000530C8981811121C084E0898321E041E041
:1052000063E2CE0101960E948B0C41E063E2CE0185
:1052100001960E94530C8981843079F480E8898357
:1052200021E041E064E2CE0101960E948B0C41E056
:1052300064E2CE0101960E94530C4AE360E08FE0E5
:105240000E94B80D42E060E080E10E94B80D44E0A9
:1052500060E081E10E94B80D42E060E081E00E94E0
:10526000B80D40E860E082E00E94B80D8EE199E060
:105270009093010180930001809169008360809385
:105280006900E89A8AE199E0909303018093020112
:1052900080916900837F886080936900E99AE8982B
:1052A000E99A0E94492180913A048093B9018E01C4
:1052B0000F5F1F4F9FE0892F67969FAF67970E94F0
:1052C000EF0CD8018D938D0167969FAD67979F5F17
:1052D000933189F799818A81890F2B819C81920F63
:1052E0009F3F09F072C08F3F09F06FC081E080934B
:1052F00028048BE00E94EF0CE82E8CE00E94EF0C5B
:10530000F82E8DE00E94EF0C082F8EE00E94EF0C2B
:10531000182F6E2DEE0C770B60537109072E000CC1
:10532000880B990B0E94B1344B015C018F2DFF0C4F
:10533000990BC097BC01990F880B990B0E94B1344F
:1053400020E030E040E251E40E948C369B01AC0149
:10535000C501B4010E9420366B017C01802F000F33
:10536000990BC097BC01990F880B990B0E94B1341F
:1053700020E030E048EC52E40E948C369B01AC0106
:10538000C701B6010E9420366B017C01812F110FED
:10539000990BC097BC01990F880B990B0E94B134EF
:1053A00020E030E04AE754E40E948C369B01AC01D7
:1053B000C701B6010E94203660932404709325042F
:1053C000809326049093270402C010922804109220
:1053D0007A00809164008160809364008091640011
:1053E0008062809364008091640088608093640090
:1053F0008091640080648093640080916400806880
:105400008093640080916400826080936400809146
:1054100064008460809364000E948420892B99F446
:105420008091210481110FC081E0809321040E94AA
:10543000F70B80912804811106C068E670E088EAC5
:1054400094E00E9451128E010F5F1F4F8CE0382EA6
:10545000300E0E948420892B99F4809121048111BF
:105460000FC081E0809321040E94F70B80912804F3
:10547000811106C066E27FE088EA94E00E94511242
:1054800080912104882309F432C688EA94E00E94BE
:10549000EF0F181619060CF02AC60E94CA0C282F06
:1054A0008A3009F424C688EA94E06A962FAF6A9796
:1054B0000E94B5136A962FAD6A97283609F424C363
:1054C0000CF09AC1233509F461C554F4253409F46C
:1054D00002C3223509F4AAC3233409F002C6CDC29F
:1054E000243609F4DAC224F4233609F478C2F9C563
:1054F000253609F4D7C2273609F0F3C562E072E019
:1055000088EA94E00E94511261EC71E088EA94E02C
:105510000E94511280E00E94EF0C682F88EA94E00C
:105520000E94261081E00E94EF0C682F88EA94E028
:105530000E94261082E00E94EF0C682F88EA94E017
:105540000E94261064EB71E088EA94E00E945112F8
:105550000E94DA0C682F80E00E94E60C0E94DA0CB0
:10556000682F81E00E94E60C0E94DA0C682F82E02E
:105570000E94E60C62E771E088EA94E00E94511212
:1055800084E00E94EF0C682F88EA94E00E942610C5
:1055900085E00E94EF0C682F88EA94E00E942610B4
:1055A00086E00E94EF0C682F88EA94E00E942610A3
:1055B00065E671E088EA94E00E9451120E94DA0CDC
:1055C000682F84E00E94E60C0E94DA0C682F85E0C8
:1055D0000E94E60C0E94DA0C682F86E00E94E60C1E
:1055E0006AE171E088EA94E00E9451128BE00E9427
:1055F000EF0C682F88EA94E00E94261068E171E0C1
:1056000088EA94E00E9451128CE00E94EF0C682F0F
:1056100088EA94E00E9426108DE00E94EF0C682F2B
:1056200088EA94E00E9426108EE00E94EF0C682F1A
:1056300088EA94E00E9426106BE071E088EA94E02A
:105640000E9451120E94DA0CF82E0E94DA0C0E947D
:10565000DA0C982E0E94DA0CA82E0E94DA0CB82ED2
:105660006F2D8BE00E94E60C692D8CE00E94E60C09
:105670006A2D8DE00E94E60C6B2D8EE00E94E60CF8
:105680006F2DFF0C770B60537109072E000C880BF0
:10569000990B0E94B1346B017C01892D990C990BF7
:1056A000C097BC01990F880B990B0E94B13420E080
:1056B00030E040E251E40E948C369B01AC01C7010E
:1056C000B6010E9420366B017C018A2DAA0C990B31
:1056D000C097BC01990F880B990B0E94B13420E050
:1056E00030E048EC52E40E948C369B01AC01C701CB
:1056F000B6010E9420366B017C018B2DBB0C990BEF
:10570000C097BC01990F880B990B0E94B13420E01F
:1057100030E04AE754E40E948C369B01AC01C7019B
:10572000B6010E9420366093240470932504809370
:1057300026049093270463EC70E088EA94E00E94CA
:10574000511287E00E94EF0C682F88EA94E00E94D3
:10575000261088E00E94EF0C682F88EA94E00E94EF
:10576000261089E00E94EF0C682F88EA94E00E94DE
:1057700026108AE00E94EF0C682F88EA94E00E94CD
:10578000261088EA94E00E94B51367EB70E088EA7F
:1057900094E00E9451120E94DA0C682F87E00E9468
:1057A000E60C0E94DA0C682F88E00E94E60C0E944A
:1057B000DA0C682F89E00E94E60C0E94DA0C682F50
:1057C0008AE00E94E60C65E982E10E94E60C6AE646
:1057D00081E10E94E60C6DEB80E10E94E60C62E440
:1057E0008FE00E94E60C88EA94E00E94B5130E94C4
:1057F00041246BEE7EE077C4213709F447C154F4AD
:105800002C3609F409C2203709F40BC2293609F0F5
:1058100068C4E9C1243709F4FBC224F4233709F42E
:1058200034C35FC4253709F4CAC3273709F059C404
:105830008CE89DE00E94C627C0901504D090160405
:105840008090170490901804A0901904B0901A0446
:10585000209124043091250440912604509127047E
:10586000D12CE12CF12CC701B6016A962FAF6A97B3
:1058700067963FAF679768964FAF689769965FAF37
:1058800069970E94AF346A962FAD6A9767963FADCD
:10589000679768964FAD689769965FAD69970E9464
:1058A00010352B013C0120912404309125044091B6
:1058B000260450912704C501B4016A962FAF6A9758
:1058C00067963FAF679768964FAF689769965FAFE7
:1058D00069970E94AF346A962FAD6A9767963FAD7D
:1058E000679768964FAD689769965FAD69970E9414
:1058F000103566966CAF7DAF8EAF9FAF669762E74F
:105900007DE088EA94E00E9451122AE0B701A601E6
:1059100088EA94E00E948A1288EA94E00E94B51313
:1059200068E57DE088EA94E00E94511222E0B3012C
:10593000A20188EA94E00E94D31262E57DE088EA41
:1059400094E00E94511268E37DE088EA94E00E94AE
:10595000511220E030E040E752E4C301B2010E945E
:10596000103520E030E040E85EE30E941035AB01E6
:10597000BC0122E088EA94E00E94D3126DE27DE04F
:1059800088EA94E00E9451126FEF7CE088EA94E08C
:105990000E9451122AE0B501A40188EA94E00E9415
:1059A0008A1288EA94E00E94B51361ED7CE088EAEF
:1059B00094E00E94511222E066964CAD5DAD6EAD52
:1059C0007FAD669788EA94E00E94D3126BEC7CE08E
:1059D00088EA94E00E94511262E07EE084C38091E4
:1059E0002204811103C066EB72E040C080911F0465
:1059F00081113AC01D860E941E0E6BE672E088EA95
:105A000094E00E94511278010E94DA0CF701819310
:105A10007F013E12F9CF6EE272E088EA94E00E94C4
:105A20005112B80188EA94E00E9475126BE172E0AD
:105A300088EA94E00E9451120E94DA0C893511F034
:105A4000893759F40E94F10B0E94F52562E279E052
:105A5000C8010E940E270E94EB0B88EA94E00E9486
:105A6000B5130E941E0E06C067E872E088EA94E053
:105A70000E9451126EED7EE036C380E40E94EF0C6E
:105A8000853A09F084C58AED92E083C560E080E440
:105A90000E94E60C64EC7EE026C30E94D72767EBE9
:105AA0007EE021C30E94D7276AE173E088EA94E090
:105AB0000E94511210922104FFEF29E688E1F15073
:105AC00020408040E1F700C00000809164008260C7
:105AD000809364000CC380911F04882319F062E353
